:103E000054B7A89585EF84BF88E180936000882728
:103E10008093600051FF0C940000415652424F4F76
:103E2000540006941E003233000044244FBE8FEF2E
:103E300094E09EBF8DBF59E15093C40050E450936D
:103E4000C00058E15093C10020C05093C60058E014
:103E50005093C1005091C00056FFFCCF50E45093E6
:103E6000C00058E15093C1000895FEE35591552BD1
:103E700011F0EBDFFACF08954091C00047FFFCCF6F
:103E80004091C60008955DE0E0DFF6DF423631F490
:103E900059E5DBDF50E0D9DF50E8F6CF4736E9F4EB
:103EA000EBDF90E0E9DF842FE7DF453459F0FD01D7
:103EB000EE0FFF1F5591C9DF5591C7DF119602978D
:103EC000C9F70AC0F999FECFB2BDA1BDF89A50B5A5
:103ED000BCDF11960197B1F7D8CF423409F040C04A
:103EE000CBDF90E0C9DF842FC7DF042F9C01C0E047
:103EF000D1E0C2DF49930197E1F7C0E0D1E0C90109
:103F0000053461F45991F999FECFB2BDA1BD50BD00
:103F1000FA9AF99A11960197A9F7B5CFF999FECFB8
:103F2000FD01EE0FFF1F9F0153E00DD051E10BD0BB
:103F30000990199051E007D0329611960297C1F777
:103F4000F90107D0A0CF07B700FDFDCF57BFE89517
:103F50000895FE3320F455E0F6DF51E1F4DF0895D3
:103F6000413611F459E590CF413429F485DFB42F5F
:103F700083DFA42F88CF453609F485CF453431F44B
:103F80005DE063DF58E050936000FFCF403711F4ED
:103F900053E57ACF443721F459E757DF50E074CF27
:103FA000483711F0493711F467DF6DCF4035E9F339
:103FB0004C34D9F34237F1F04634E1F04E34D1F0CD
:103FC0004135C1F0443511F457DF5DCF433519F465
:103FD000EAE1FEE309C0463519F4E6E2FEE304C077
:103FE000433721F4E2E2FEE340DF4FCF4B31E9F308
:083FF0005FE34ACF50E048CF27
:0400000300003E00BB
:00000001FF
